{
  "contractName": "SimulatedBond",
  "abi": [
    {
      "constant": false,
      "inputs": [
        {
          "name": "_owner",
          "type": "address"
        }
      ],
      "name": "setOwner",
      "outputs": [],
      "payable": false,
      "stateMutability": "nonpayable",
      "type": "function"
    },
    {
      "constant": true,
      "inputs": [],
      "name": "getOwner",
      "outputs": [
        {
          "name": "",
          "type": "address"
        }
      ],
      "payable": false,
      "stateMutability": "view",
      "type": "function"
    },
    {
      "constant": false,
      "inputs": [],
      "name": "collateralize",
      "outputs": [],
      "payable": true,
      "stateMutability": "payable",
      "type": "function"
    },
    {
      "constant": true,
      "inputs": [],
      "name": "getBalance",
      "outputs": [
        {
          "name": "",
          "type": "uint256"
        }
      ],
      "payable": false,
      "stateMutability": "view",
      "type": "function"
    },
    {
      "constant": false,
      "inputs": [],
      "name": "payout",
      "outputs": [],
      "payable": false,
      "stateMutability": "nonpayable",
      "type": "function"
    }
  ],
  "bytecode": "0x6060604052341561000f57600080fd5b61028a8061001e6000396000f30060606040526004361061006d576000357c0100000000000000000000000000000000000000000000000000000000900463ffffffff16806312065fe01461007257806313af40351461009b57806363bd1d4a146100d4578063893d20e8146100e9578063eef9a8d51461013e575b600080fd5b341561007d57600080fd5b610085610148565b6040518082815260200191505060405180910390f35b34156100a657600080fd5b6100d2600480803573ffffffffffffffffffffffffffffffffffffffff16906020019091905050610167565b005b34156100df57600080fd5b6100e76101aa565b005b34156100f457600080fd5b6100fc610224565b604051808273ffffffffffffffffffffffffffffffffffffffff1673ffffffffffffffffffffffffffffffffffffffff16815260200191505060405180910390f35b61014661024d565b005b60003073ffffffffffffffffffffffffffffffffffffffff1631905090565b806000806101000a81548173ffffffffffffffffffffffffffffffffffffffff021916908373ffffffffffffffffffffffffffffffffffffffff16021790555050565b6000809054906101000a900473ffffffffffffffffffffffffffffffffffffffff1673ffffffffffffffffffffffffffffffffffffffff166108fc3073ffffffffffffffffffffffffffffffffffffffff16319081150290604051600060405180830381858888f19350505050151561022257600080fd5b565b60008060009054906101000a900473ffffffffffffffffffffffffffffffffffffffff16905090565b60003411151561025c57600080fd5b5600a165627a7a72305820ef3dd09d33bcf1c44f3d6ae88d8fedd700f550d3cc701d3d702d1258be2a82440029",
  "source": "//import \"github.com/OpenZeppelin/zeppelin-solidity/contracts/math/SafeMath.sol\";\n\npragma solidity ^0.4.19;\n\ncontract SimulatedBond {\n    address owner;\n\n    function setOwner(address _owner) {\n        owner = _owner;\n    }\n\n    function getOwner() constant returns(address) {\n        return owner;\n    }\n\n    function collateralize() payable {\n        require(msg.value > 0);\n    }\n\n    function getBalance() constant returns(uint256) {\n        return this.balance;\n    }\n\n    function payout() {\n        owner.transfer(this.balance);\n    }\n}\n\n\ncontract SimulatedDerivative {\n    address owner;\n\n    function setOwner(address _owner) {\n        owner = _owner;\n    }\n\n    function getOwner() constant returns(address) {\n        return owner;\n    }\n\n    function collateralize() payable {\n        require(msg.value > 0);\n    }\n\n    function getBalance() constant returns(uint256) {\n        return this.balance;\n    }\n\n    function payout(uint256 value) {\n        if(value == 1) {\n            owner.transfer(this.balance);\n        }\n    }\n}\n\ncontract SimulatedIndexToken {\n    address owner;\n\n    function setOwner(address _owner) {\n        owner = _owner;\n    }\n\n    function getOwner() constant returns(address) {\n        return owner;\n    }\n}\n\ncontract SmartDSP {\n\n    address issuer;\n    address owner;\n\n    //using SafeMath for uint256;\n    string metaData;\n    uint[] creditRatings;\n    address[] creditRatingAddresses;\n    uint price;\n    uint commission;\n\n    uint active;\n    uint packaged;\n    uint rated;\n\n    SimulatedBond simulatedBond;\n    SimulatedDerivative simulatedDerivative;\n    SimulatedIndexToken simulatedIndexToken;\n\n    function SmartDSP() {\n        issuer = msg.sender;\n        active = 0;\n        packaged = 0;\n        rated = 0;\n    }\n\n    function getActive() constant returns(uint) {\n        return active;\n    }\n\n    function getPackages() constant returns(uint) {\n        return packaged;\n    }\n\n    function getRated() constant returns(uint) {\n        return rated;\n    }\n\n    function setPrice(uint256 _value) {\n        price = _value;\n    }\n\n    function getPrice() constant returns(uint) {\n        return price;\n    }\n\n    function getCommission() constant returns(uint) {\n        return commission;\n    }\n\n    function setCommission(uint _value) {\n        commission = _value;\n    }\n\n    function getIssuer() constant returns(address) {\n        return issuer;\n    }\n\n    function getOwner() constant returns(address) {\n        return owner;\n    }\n\n    function addUnderlyingSecurities(address sec1, address sec2, address sec3, uint _price, uint _commission) {\n        simulatedBond = SimulatedBond(sec1);\n        simulatedDerivative = SimulatedDerivative(sec2);\n        simulatedIndexToken = SimulatedIndexToken(sec3);\n        metaData = \"This security consists of 1 long Simulatedbond, 1 long simulated forward derivative, 1 long indexed token. It promises a principle protected payout at maturity.\";\n        packaged = 1;\n        price = _price;\n        commission = _commission;\n    }\n\n    function getMetaData() constant returns (string){\n        return metaData;\n    }\n\n    function giveRating(uint _rating) {\n        creditRatings.push(_rating);\n        creditRatingAddresses.push(msg.sender);\n        rated = 1;\n    }\n\n    function getRatingTotal() constant returns(uint) {\n        uint rating = 0;\n        for(uint i=0;i<creditRatings.length;i++)\n        {\n            rating+= creditRatings[i];\n        }\n        return rating;\n    }\n\n    function getRating(uint i) constant returns(uint) {\n        return creditRatings[i];\n    }\n\n    function getRatingsLength() constant returns(uint) {\n        return creditRatings.length;\n    }\n\n    function getRatingAddresses(uint i) constant returns(address) {\n        return creditRatingAddresses[i];\n    }\n\n    function setOwnership(address _owner) payable {\n        simulatedBond.setOwner(_owner);\n        simulatedDerivative.setOwner(_owner);\n        simulatedIndexToken.setOwner(_owner);\n        owner = _owner;\n        active = 1;\n        issuer.transfer(this.balance);\n    }\n\n    function claimPayouts(uint256 value) {\n        require(msg.sender == owner);\n        require(active == 1);\n        simulatedBond.payout();\n        simulatedDerivative.payout(value);\n        active = 0;\n    }\n\n}\n",
  "sourcePath": "/Users/aditya/Documents/Workspace/Blockchain/GlobalBlockchainHackathon/smartdsp/contracts/SmartDSP.sol",
  "compiler": {
    "name": "solc",
    "version": "0.4.19+commit.c4cbbb05.Emscripten.clang"
  },
  "schemaVersion": "1.0.1",
  "updatedAt": "2018-06-17T21:52:12.131Z"
}