{
  "contractName": "SmartDSP",
  "abi": [
    {
      "constant": true,
      "inputs": [],
      "name": "getActive",
      "outputs": [
        {
          "name": "",
          "type": "uint256"
        }
      ],
      "payable": false,
      "stateMutability": "view",
      "type": "function"
    },
    {
      "constant": false,
      "inputs": [
        {
          "name": "value",
          "type": "uint256"
        }
      ],
      "name": "claimPayouts",
      "outputs": [],
      "payable": false,
      "stateMutability": "nonpayable",
      "type": "function"
    },
    {
      "constant": true,
      "inputs": [],
      "name": "getRatingTotal",
      "outputs": [
        {
          "name": "",
          "type": "uint256"
        }
      ],
      "payable": false,
      "stateMutability": "view",
      "type": "function"
    },
    {
      "constant": true,
      "inputs": [
        {
          "name": "i",
          "type": "uint256"
        }
      ],
      "name": "getRatingAddresses",
      "outputs": [
        {
          "name": "",
          "type": "address"
        }
      ],
      "payable": false,
      "stateMutability": "view",
      "type": "function"
    },
    {
      "constant": false,
      "inputs": [
        {
          "name": "sec1",
          "type": "address"
        },
        {
          "name": "sec2",
          "type": "address"
        },
        {
          "name": "sec3",
          "type": "address"
        },
        {
          "name": "_price",
          "type": "uint256"
        },
        {
          "name": "_commission",
          "type": "uint256"
        }
      ],
      "name": "addUnderlyingSecurities",
      "outputs": [],
      "payable": false,
      "stateMutability": "nonpayable",
      "type": "function"
    },
    {
      "constant": false,
      "inputs": [
        {
          "name": "_value",
          "type": "uint256"
        }
      ],
      "name": "setCommission",
      "outputs": [],
      "payable": false,
      "stateMutability": "nonpayable",
      "type": "function"
    },
    {
      "constant": true,
      "inputs": [],
      "name": "getIssuer",
      "outputs": [
        {
          "name": "",
          "type": "address"
        }
      ],
      "payable": false,
      "stateMutability": "view",
      "type": "function"
    },
    {
      "constant": true,
      "inputs": [],
      "name": "getPackages",
      "outputs": [
        {
          "name": "",
          "type": "uint256"
        }
      ],
      "payable": false,
      "stateMutability": "view",
      "type": "function"
    },
    {
      "constant": false,
      "inputs": [
        {
          "name": "_value",
          "type": "uint256"
        }
      ],
      "name": "setPrice",
      "outputs": [],
      "payable": false,
      "stateMutability": "nonpayable",
      "type": "function"
    },
    {
      "constant": true,
      "inputs": [],
      "name": "getPrice",
      "outputs": [
        {
          "name": "",
          "type": "uint256"
        }
      ],
      "payable": false,
      "stateMutability": "view",
      "type": "function"
    },
    {
      "constant": false,
      "inputs": [
        {
          "name": "_owner",
          "type": "address"
        }
      ],
      "name": "setOwnership",
      "outputs": [],
      "payable": true,
      "stateMutability": "payable",
      "type": "function"
    },
    {
      "constant": true,
      "inputs": [
        {
          "name": "i",
          "type": "uint256"
        }
      ],
      "name": "getRating",
      "outputs": [
        {
          "name": "",
          "type": "uint256"
        }
      ],
      "payable": false,
      "stateMutability": "view",
      "type": "function"
    },
    {
      "constant": true,
      "inputs": [],
      "name": "getRated",
      "outputs": [
        {
          "name": "",
          "type": "uint256"
        }
      ],
      "payable": false,
      "stateMutability": "view",
      "type": "function"
    },
    {
      "constant": true,
      "inputs": [],
      "name": "getMetaData",
      "outputs": [
        {
          "name": "",
          "type": "string"
        }
      ],
      "payable": false,
      "stateMutability": "view",
      "type": "function"
    },
    {
      "constant": false,
      "inputs": [
        {
          "name": "_rating",
          "type": "uint256"
        }
      ],
      "name": "giveRating",
      "outputs": [],
      "payable": false,
      "stateMutability": "nonpayable",
      "type": "function"
    },
    {
      "constant": true,
      "inputs": [],
      "name": "getCommission",
      "outputs": [
        {
          "name": "",
          "type": "uint256"
        }
      ],
      "payable": false,
      "stateMutability": "view",
      "type": "function"
    },
    {
      "constant": true,
      "inputs": [],
      "name": "getRatingsLength",
      "outputs": [
        {
          "name": "",
          "type": "uint256"
        }
      ],
      "payable": false,
      "stateMutability": "view",
      "type": "function"
    },
    {
      "inputs": [],
      "payable": false,
      "stateMutability": "nonpayable",
      "type": "constructor"
    },
    {
      "constant": true,
      "inputs": [],
      "name": "getOwner",
      "outputs": [
        {
          "name": "",
          "type": "address"
        }
      ],
      "payable": false,
      "stateMutability": "view",
      "type": "function"
    }
  ],
  "bytecode": "0x6060604052341561000f57600080fd5b336000806101000a81548173ffffffffffffffffffffffffffffffffffffffff021916908373ffffffffffffffffffffffffffffffffffffffff160217905550600060078190555060006008819055506000600981905550610fa5806100766000396000f3006060604052600436106100fb576000357c0100000000000000000000000000000000000000000000000000000000900463ffffffff1680629ebb101461010057806305be8a8c146101295780631cc404c31461014c5780633014e51e1461017557806333ec4074146101d8578063355e6b431461026157806352556421146102845780635c05a89f146102d9578063893d20e81461030257806391b7f5ed1461035757806398d5fdca1461037a578063a7016023146103a3578063b0ee0e9f146103d1578063bfc73f7d14610408578063d2786ba414610431578063dc104f80146104bf578063e65d6b49146104e2578063f75896e31461050b575b600080fd5b341561010b57600080fd5b610113610534565b6040518082815260200191505060405180910390f35b341561013457600080fd5b61014a600480803590602001909190505061053e565b005b341561015757600080fd5b61015f6106f3565b6040518082815260200191505060405180910390f35b341561018057600080fd5b6101966004808035906020019091905050610741565b604051808273ffffffffffffffffffffffffffffffffffffffff1673ffffffffffffffffffffffffffffffffffffffff16815260200191505060405180910390f35b34156101e357600080fd5b61025f600480803573ffffffffffffffffffffffffffffffffffffffff1690602001909190803573ffffffffffffffffffffffffffffffffffffffff1690602001909190803573ffffffffffffffffffffffffffffffffffffffff16906020019091908035906020019091908035906020019091905050610785565b005b341561026c57600080fd5b6102826004808035906020019091905050610895565b005b341561028f57600080fd5b61029761089f565b604051808273ffffffffffffffffffffffffffffffffffffffff1673ffffffffffffffffffffffffffffffffffffffff16815260200191505060405180910390f35b34156102e457600080fd5b6102ec6108c8565b6040518082815260200191505060405180910390f35b341561030d57600080fd5b6103156108d2565b604051808273ffffffffffffffffffffffffffffffffffffffff1673ffffffffffffffffffffffffffffffffffffffff16815260200191505060405180910390f35b341561036257600080fd5b61037860048080359060200190919050506108fc565b005b341561038557600080fd5b61038d610906565b6040518082815260200191505060405180910390f35b6103cf600480803573ffffffffffffffffffffffffffffffffffffffff16906020019091905050610910565b005b34156103dc57600080fd5b6103f26004808035906020019091905050610c44565b6040518082815260200191505060405180910390f35b341561041357600080fd5b61041b610c68565b6040518082815260200191505060405180910390f35b341561043c57600080fd5b610444610c72565b6040518080602001828103825283818151815260200191508051906020019080838360005b83811015610484578082015181840152602081019050610469565b50505050905090810190601f1680156104b15780820380516001836020036101000a031916815260200191505b509250505060405180910390f35b34156104ca57600080fd5b6104e06004808035906020019091905050610d1a565b005b34156104ed57600080fd5b6104f5610db1565b6040518082815260200191505060405180910390f35b341561051657600080fd5b61051e610dbb565b6040518082815260200191505060405180910390f35b6000600754905090565b600160009054906101000a900473ffffffffffffffffffffffffffffffffffffffff1673ffffffffffffffffffffffffffffffffffffffff163373ffffffffffffffffffffffffffffffffffffffff1614151561059a57600080fd5b60016007541415156105ab57600080fd5b600a60009054906101000a900473ffffffffffffffffffffffffffffffffffffffff1673ffffffffffffffffffffffffffffffffffffffff166363bd1d4a6040518163ffffffff167c0100000000000000000000000000000000000000000000000000000000028152600401600060405180830381600087803b151561063057600080fd5b6102c65a03f1151561064157600080fd5b505050600b60009054906101000a900473ffffffffffffffffffffffffffffffffffffffff1673ffffffffffffffffffffffffffffffffffffffff1663e1152343826040518263ffffffff167c010000000000000000000000000000000000000000000000000000000002815260040180828152602001915050600060405180830381600087803b15156106d457600080fd5b6102c65a03f115156106e557600080fd5b505050600060078190555050565b6000806000809150600090505b6003805490508110156107395760038181548110151561071c57fe5b906000526020600020900154820191508080600101915050610700565b819250505090565b600060048281548110151561075257fe5b906000526020600020900160009054906101000a900473ffffffffffffffffffffffffffffffffffffffff169050919050565b84600a60006101000a81548173ffffffffffffffffffffffffffffffffffffffff021916908373ffffffffffffffffffffffffffffffffffffffff16021790555083600b60006101000a81548173ffffffffffffffffffffffffffffffffffffffff021916908373ffffffffffffffffffffffffffffffffffffffff16021790555082600c60006101000a81548173ffffffffffffffffffffffffffffffffffffffff021916908373ffffffffffffffffffffffffffffffffffffffff16021790555060c06040519081016040528060a08152602001610eda60a0913960029080519060200190610877929190610dc8565b50600160088190555081600581905550806006819055505050505050565b8060068190555050565b60008060009054906101000a900473ffffffffffffffffffffffffffffffffffffffff16905090565b6000600854905090565b6000600160009054906101000a900473ffffffffffffffffffffffffffffffffffffffff16905090565b8060058190555050565b6000600554905090565b600a60009054906101000a900473ffffffffffffffffffffffffffffffffffffffff1673ffffffffffffffffffffffffffffffffffffffff166313af4035826040518263ffffffff167c0100000000000000000000000000000000000000000000000000000000028152600401808273ffffffffffffffffffffffffffffffffffffffff1673ffffffffffffffffffffffffffffffffffffffff168152602001915050600060405180830381600087803b15156109cc57600080fd5b6102c65a03f115156109dd57600080fd5b505050600b60009054906101000a900473ffffffffffffffffffffffffffffffffffffffff1673ffffffffffffffffffffffffffffffffffffffff166313af4035826040518263ffffffff167c0100000000000000000000000000000000000000000000000000000000028152600401808273ffffffffffffffffffffffffffffffffffffffff1673ffffffffffffffffffffffffffffffffffffffff168152602001915050600060405180830381600087803b1515610a9c57600080fd5b6102c65a03f11515610aad57600080fd5b505050600c60009054906101000a900473ffffffffffffffffffffffffffffffffffffffff1673ffffffffffffffffffffffffffffffffffffffff166313af4035826040518263ffffffff167c0100000000000000000000000000000000000000000000000000000000028152600401808273ffffffffffffffffffffffffffffffffffffffff1673ffffffffffffffffffffffffffffffffffffffff168152602001915050600060405180830381600087803b1515610b6c57600080fd5b6102c65a03f11515610b7d57600080fd5b50505080600160006101000a81548173ffffffffffffffffffffffffffffffffffffffff021916908373ffffffffffffffffffffffffffffffffffffffff16021790555060016007819055506000809054906101000a900473ffffffffffffffffffffffffffffffffffffffff1673ffffffffffffffffffffffffffffffffffffffff166108fc3073ffffffffffffffffffffffffffffffffffffffff16319081150290604051600060405180830381858888f193505050501515610c4157600080fd5b50565b6000600382815481101515610c5557fe5b9060005260206000209001549050919050565b6000600954905090565b610c7a610e48565b60028054600181600116156101000203166002900480601f016020809104026020016040519081016040528092919081815260200182805460018160011615610100020316600290048015610d105780601f10610ce557610100808354040283529160200191610d10565b820191906000526020600020905b815481529060010190602001808311610cf357829003601f168201915b5050505050905090565b60038054806001018281610d2e9190610e5c565b91600052602060002090016000839091909150555060048054806001018281610d579190610e88565b9160005260206000209001600033909190916101000a81548173ffffffffffffffffffffffffffffffffffffffff021916908373ffffffffffffffffffffffffffffffffffffffff16021790555050600160098190555050565b6000600654905090565b6000600380549050905090565b828054600181600116156101000203166002900490600052602060002090601f016020900481019282601f10610e0957805160ff1916838001178555610e37565b82800160010185558215610e37579182015b82811115610e36578251825591602001919060010190610e1b565b5b509050610e449190610eb4565b5090565b602060405190810160405280600081525090565b815481835581811511610e8357818360005260206000209182019101610e829190610eb4565b5b505050565b815481835581811511610eaf57818360005260206000209182019101610eae9190610eb4565b5b505050565b610ed691905b80821115610ed2576000816000905550600101610eba565b5090565b9056005468697320736563757269747920636f6e7369737473206f662031206c6f6e672053696d756c61746564626f6e642c2031206c6f6e672073696d756c6174656420666f727761726420646572697661746976652c2031206c6f6e6720696e646578656420746f6b656e2e2049742070726f6d697365732061207072696e6369706c652070726f746563746564207061796f7574206174206d617475726974792ea165627a7a723058203553b586d333c972e53cfe00b2f0df84aa36422333dea053f10a316eb64644730029",
  "source": "//import \"github.com/OpenZeppelin/zeppelin-solidity/contracts/math/SafeMath.sol\";\n\npragma solidity ^0.4.19;\n\ncontract SimulatedBond {\n    address owner;\n\n    function setOwner(address _owner) {\n        owner = _owner;\n    }\n\n    function getOwner() constant returns(address) {\n        return owner;\n    }\n\n    function collateralize() payable {\n        require(msg.value > 0);\n    }\n\n    function getBalance() constant returns(uint256) {\n        return this.balance;\n    }\n\n    function payout() {\n        owner.transfer(this.balance);\n    }\n}\n\n\ncontract SimulatedDerivative {\n    address owner;\n\n    function setOwner(address _owner) {\n        owner = _owner;\n    }\n\n    function getOwner() constant returns(address) {\n        return owner;\n    }\n\n    function collateralize() payable {\n        require(msg.value > 0);\n    }\n\n    function getBalance() constant returns(uint256) {\n        return this.balance;\n    }\n\n    function payout(uint256 value) {\n        if(value == 1) {\n            owner.transfer(this.balance);\n        }\n    }\n}\n\ncontract SimulatedIndexToken {\n    address owner;\n\n    function setOwner(address _owner) {\n        owner = _owner;\n    }\n\n    function getOwner() constant returns(address) {\n        return owner;\n    }\n}\n\ncontract SmartDSP {\n\n    address issuer;\n    address owner;\n\n    //using SafeMath for uint256;\n    string metaData;\n    uint[] creditRatings;\n    address[] creditRatingAddresses;\n    uint price;\n    uint commission;\n\n    uint active;\n    uint packaged;\n    uint rated;\n\n    SimulatedBond simulatedBond;\n    SimulatedDerivative simulatedDerivative;\n    SimulatedIndexToken simulatedIndexToken;\n\n    function SmartDSP() {\n        issuer = msg.sender;\n        active = 0;\n        packaged = 0;\n        rated = 0;\n    }\n\n    function getActive() constant returns(uint) {\n        return active;\n    }\n\n    function getPackages() constant returns(uint) {\n        return packaged;\n    }\n\n    function getRated() constant returns(uint) {\n        return rated;\n    }\n\n    function setPrice(uint256 _value) {\n        price = _value;\n    }\n\n    function getPrice() constant returns(uint) {\n        return price;\n    }\n\n    function getCommission() constant returns(uint) {\n        return commission;\n    }\n\n    function setCommission(uint _value) {\n        commission = _value;\n    }\n\n    function getIssuer() constant returns(address) {\n        return issuer;\n    }\n\n    function getOwner() constant returns(address) {\n        return owner;\n    }\n\n    function addUnderlyingSecurities(address sec1, address sec2, address sec3, uint _price, uint _commission) {\n        simulatedBond = SimulatedBond(sec1);\n        simulatedDerivative = SimulatedDerivative(sec2);\n        simulatedIndexToken = SimulatedIndexToken(sec3);\n        metaData = \"This security consists of 1 long Simulatedbond, 1 long simulated forward derivative, 1 long indexed token. It promises a principle protected payout at maturity.\";\n        packaged = 1;\n        price = _price;\n        commission = _commission;\n    }\n\n    function getMetaData() constant returns (string){\n        return metaData;\n    }\n\n    function giveRating(uint _rating) {\n        creditRatings.push(_rating);\n        creditRatingAddresses.push(msg.sender);\n        rated = 1;\n    }\n\n    function getRatingTotal() constant returns(uint) {\n        uint rating = 0;\n        for(uint i=0;i<creditRatings.length;i++)\n        {\n            rating+= creditRatings[i];\n        }\n        return rating;\n    }\n\n    function getRating(uint i) constant returns(uint) {\n        return creditRatings[i];\n    }\n\n    function getRatingsLength() constant returns(uint) {\n        return creditRatings.length;\n    }\n\n    function getRatingAddresses(uint i) constant returns(address) {\n        return creditRatingAddresses[i];\n    }\n\n    function setOwnership(address _owner) payable {\n        simulatedBond.setOwner(_owner);\n        simulatedDerivative.setOwner(_owner);\n        simulatedIndexToken.setOwner(_owner);\n        owner = _owner;\n        active = 1;\n        issuer.transfer(this.balance);\n    }\n\n    function claimPayouts(uint256 value) {\n        require(msg.sender == owner);\n        require(active == 1);\n        simulatedBond.payout();\n        simulatedDerivative.payout(value);\n        active = 0;\n    }\n\n}\n",
  "sourcePath": "/Users/aditya/Documents/Workspace/Blockchain/GlobalBlockchainHackathon/smartdsp/contracts/SmartDSP.sol",
  "compiler": {
    "name": "solc",
    "version": "0.4.19+commit.c4cbbb05.Emscripten.clang"
  },
  "schemaVersion": "1.0.1",
  "updatedAt": "2018-06-17T21:52:12.140Z"
}